:020000040800F2
:1000000000000520AD200008C91F0008CB1F000814
:10001000CD1F0008CF1F0008D11F000800000000FE
:1000200000000000000000000000000001C3000804
:10003000D31F000800000000A1C3000805C4000889
:10004000FD200008FD200008FD200008FD2000081C
:10005000FD200008FD200008FD200008FD2000080C
:10006000FD200008FD200008FD200008FD200008FC
:10007000FD200008FD200008FD200008FD200008EC
:10008000FD200008FD200008FD200008FD200008DC
:10009000FD200008FD200008FD200008FD200008CC
:1000A000FD200008FD200008FD200008FD200008BC
:1000B000FD200008FD200008FD200008FD200008AC
:1000C000FD200008FD200008FD200008FD2000089C
:1000D000FD200008FD200008FD200008FD2000088C
:1000E000FD200008FD200008FD200008FD2000087C
:1000F000FD200008FD200008FD200008FD2000086C
:10010000FD200008FD200008FD200008FD2000085B
:10011000FD200008FD200008D51F0008FD20000874
:10012000FD200008FD200008FD200008FD2000083B
:10013000FD200008FD200008FD200008FD2000082B
:10014000FD200008FD200008FD200008FD2000081B
:10015000FD200008FD200008FD200008FD2000080B
:10016000FD200008FD200008FD200008FD200008FB
:10017000FD200008FD200008FD2000080000000010
:10018000FD200008FD200008FD200008FD200008DB
:10019000FD200008FD200008FD200008FD200008CB
:1001A000E11F0008FD200008ED1F0008FD200008E9
:1001B000FD200008FD200008FD200008FD200008AB
:0801C000FD200008FD200008ED
:1001D00010B5054C237833B9044B13B10448AFF381
:1001E00000800123237010BD0006002000000000E5
:1001F0004480030808B5034B1BB103490348AFF320
:10020000008008BD000000000406002044800308B0
:1002100001F0FF01102A2BDB10F0070F08D010F8B7
:10022000013B013A8B422DD010F0070F42B3F6D1BB
:10023000F0B441EA012141EA014122F007047FF0D4
:1002400000070023F0E80256083C85EA010586EA2B
:10025000010685FA47F5A3FA87F586FA47F6A5FA67
:1002600087F68EB9EED1F0BC01F0FF0102F0070273
:1002700032B110F8013B013A83EA010313B1F8D11E
:100280000020704701387047002D06BF35460338FF
:10029000073815F0010F07D1013015F4807F02BF38
:1002A000013015F4C03F0130F0BC0138704700BF89
:1002B000034613F8012B002AFBD1181A01387047A6
:1002C00081F0004102E000BF83F0004330B54FEA07
:1002D00041044FEA430594EA050F08BF90EA020F74
:1002E0001FBF54EA000C55EA020C7FEA645C7FEA07
:1002F000655C00F0E2804FEA5454D4EB5555B8BF2A
:100300006D420CDD2C4480EA020281EA030382EA9A
:10031000000083EA010180EA020281EA0303362D2C
:1003200088BF30BD11F0004F4FEA01314FF4801CFF
:100330004CEA113102D0404261EB410113F0004F11
:100340004FEA03334CEA133302D0524263EB4303C8
:1003500094EA050F00F0A780A4F10104D5F1200E66
:100360000DDB02FA0EFC22FA05F2801841F10001C1
:1003700003FA0EF2801843FA05F359410EE0A5F195
:1003800020050EF1200E012A03FA0EFC28BF4CF0C6
:10039000020C43FA05F3C01851EBE37101F000457C
:1003A00007D54FF0000EDCF1000C7EEB00006EEB89
:1003B0000101B1F5801F1BD3B1F5001F0CD3490813
:1003C0005FEA30004FEA3C0C04F101044FEA44526A
:1003D00012F5800F80F09A80BCF1004F08BF5FEAF1
:1003E000500C50F1000041EB045141EA050130BDD1
:1003F0005FEA4C0C404141EB0101013C28BFB1F5E3
:10040000801FE9D291F0000F04BF01460020B1FA2D
:1004100081F308BF2033A3F10B03B3F120020CDA00
:100420000C3208DD02F1140CC2F10C0201FA0CF0DE
:1004300021FA02F10CE002F11402D8BFC2F1200C43
:1004400001FA02F120FA0CFCDCBF41EA0C019040F9
:10045000E41AA2BF01EB0451294330BD6FEA040442
:100460001F3C1CDA0C340EDC04F11404C4F120022D
:1004700020FA04F001FA02F340EA030021FA04F33F
:1004800045EA030130BDC4F10C04C4F1200220FA96
:1004900002F001FA04F340EA0300294630BD21FAD4
:1004A00004F0294630BD94F0000F83F4801306BF9A
:1004B00081F480110134013D4EE77FEA645C18BF8E
:1004C0007FEA655C29D094EA050F08BF90EA020F25
:1004D00005D054EA000C04BF1946104630BD91EA1D
:1004E000030F1EBF0021002030BD5FEA545C05D120
:1004F0004000494128BF41F0004130BD14F580045F
:100500003CBF01F5801130BD01F0004545F0FE41D2
:1005100041F470014FF0000030BD7FEA645C1ABF07
:10052000194610467FEA655C1CBF0B46024650EA3E
:10053000013406BF52EA033591EA030F41F400216A
:1005400030BD00BF90F0000F04BF0021704730B5F0
:100550004FF4806404F132044FF000054FF00001C5
:1005600050E700BF90F0000F04BF0021704730B586
:100570004FF4806404F1320410F0004548BF40425B
:100580004FF000013EE700BF42004FEAE2014FEAB0
:1005900031014FEA02701FBF12F07F4393F07F4F8B
:1005A00081F06051704732F07F4208BF704793F08E
:1005B0007F4F04BF41F40021704730B54FF46074A1
:1005C00001F0004521F000411CE700BF50EA0102A4
:1005D00008BF704730B54FF000050AE050EA01024D
:1005E00008BF704730B511F0004502D5404261EBBD
:1005F00041014FF4806404F132045FEA915C3FF4FE
:10060000D8AE4FF003025FEADC0C18BF03325FEA9A
:10061000DC0C18BF033202EBDC02C2F1200300FA4B
:1006200003FC20FA02F001FA03FE40EA0E0021FA70
:1006300002F11444BDE600BF70B54FF0FF0C4CF45E
:10064000E06C1CEA11541DBF1CEA135594EA0C0F10
:1006500095EA0C0F00F0DEF82C4481EA030621EA4B
:100660004C5123EA4C5350EA013518BF52EA033586
:1006700041F4801143F4801338D0A0FB02CE4FF038
:100680000005E1FB02E506F00042E0FB03E54FF068
:100690000006E1FB03569CF0000F18BF4EF0010E60
:1006A000A4F1FF04B6F5007F64F5407404D25FEA5C
:1006B0004E0E6D4146EB060642EAC62141EA55510F
:1006C0004FEAC52040EA5E504FEACE2EB4F1FD0C51
:1006D00088BFBCF5E06F1ED8BEF1004F08BF5FEACF
:1006E000500E50F1000041EB045170BD06F0004681
:1006F00046EA010140EA020081EA0301B4EB5C042E
:10070000C2BFD4EB0C0541EA045170BD41F4801125
:100710004FF0000E013C00F3AB8014F1360FDEBF4A
:10072000002001F0004170BDC4F10004203C35DA26
:100730000C341BDC04F11404C4F1200500FA05F3A9
:1007400020FA04F001FA05F240EA020001F000424A
:1007500021F0004110EBD37021FA04F642EB0601C0
:100760005EEA430E08BF20EAD37070BDC4F10C04EA
:10077000C4F1200500FA04F320FA05F001FA04F2AE
:1007800040EA020001F0004110EBD37041F100019A
:100790005EEA430E08BF20EAD37070BDC4F12005A5
:1007A00000FA05F24EEA020E20FA04F301FA05F20D
:1007B00043EA020321FA04F001F0004121FA04F2B5
:1007C00020EA020000EBD3705EEA430E08BF20EA85
:1007D000D37070BD94F0000F0FD101F000464000BF
:1007E00041EB010111F4801F08BF013CF7D041EA41
:1007F000060195F0000F18BF704703F00046520045
:1008000043EB030313F4801F08BF013DF7D043EA15
:100810000603704794EA0C0F0CEA135518BF95EACB
:100820000C0F0CD050EA410618BF52EA4306D1D152
:1008300081EA030101F000414FF0000070BD50EA71
:10084000410606BF1046194652EA430619D094EAFB
:100850000C0F02D150EA013613D195EA0C0F05D1E5
:1008600052EA03361CBF104619460AD181EA030139
:1008700001F0004141F0FE4141F470014FF00000F1
:1008800070BD41F0FE4141F4780170BD70B54FF08C
:10089000FF0C4CF4E06C1CEA11541DBF1CEA13550C
:1008A00094EA0C0F95EA0C0F00F0A7F8A4EB0504EE
:1008B00081EA030E52EA03354FEA013100F08880E5
:1008C0004FEA03334FF0805545EA131343EA1263AE
:1008D0004FEA022245EA111545EA10654FEA002663
:1008E0000EF000419D4208BF964244F1FD0404F51C
:1008F000407402D25B084FEA3202B61A65EB030578
:100900005B084FEA32024FF480104FF4002CB6EB34
:10091000020E75EB030E22BFB61A754640EA0C00B4
:100920005B084FEA3202B6EB020E75EB030E22BFF4
:10093000B61A754640EA5C005B084FEA3202B6EB35
:10094000020E75EB030E22BFB61A754640EA9C00F4
:100950005B084FEA3202B6EB020E75EB030E22BFC4
:10096000B61A754640EADC0055EA060E18D04FEA82
:10097000051545EA16754FEA06164FEAC30343EA22
:1009800052734FEAC2025FEA1C1CC0D111F4801FEF
:100990000BD141EA00014FF000004FF0004CB6E7E8
:1009A00011F4801F04BF01430020B4F1FD0C88BF87
:1009B000BCF5E06F3FF6AFAEB5EB030C04BFB6EB92
:1009C000020C5FEA500C50F1000041EB045170BD85
:1009D0000EF0004E4EEA113114EB5C04C2BFD4EBB2
:1009E0000C0541EA045170BD41F480114FF0000E36
:1009F000013C90E645EA060E8DE60CEA135594EAB2
:100A00000C0F08BF95EA0C0F3FF43BAF94EA0C0FB4
:100A10000AD150EA01347FF434AF95EA0C0F7FF429
:100A200025AF104619462CE795EA0C0F06D152EA7D
:100A300003353FF4FDAE1046194622E750EA410661
:100A400018BF52EA43067FF4C5AE50EA41047FF472
:100A50000DAF52EA43057FF4EBAE12E74FF0FF3CD7
:100A600006E000BF4FF0010C02E000BF4FF0010CA8
:100A70004DF804CD4FEA410C7FEA6C5C4FEA430C21
:100A800018BF7FEA6C5C1BD001B050EA410C0CBF70
:100A900052EA430C91EA030F02BF90EA020F0020D2
:100AA000704710F1000F91EA030F58BF994208BF39
:100AB00090422CBFD8176FEAE37040F001007047F6
:100AC0004FEA410C7FEA6C5C02D150EA013C07D14D
:100AD0004FEA430C7FEA6C5CD6D152EA033CD3D098
:100AE0005DF8040B704700BF8446104662468C4692
:100AF0001946634600E000BF01B5FFF7B7FF0028C5
:100B000048BF10F1000F01BD4DF808EDFFF7F4FFED
:100B10000CBF012000205DF808FB00BF4DF808ED78
:100B2000FFF7EAFF34BF012000205DF808FB00BF9B
:100B30004DF808EDFFF7E0FF94BF012000205DF8BD
:100B400008FB00BF4DF808EDFFF7CEFF94BF012072
:100B500000205DF808FB00BF4DF808EDFFF7C4FF6B
:100B600034BF012000205DF808FB00BF4FEA410CB4
:100B70007FEA6C5C02D150EA013C0AD14FEA430C97
:100B80007FEA6C5C02D152EA033C02D14FF00000D4
:100B900070474FF0010070474FEA410212F5001212
:100BA00015D211D56FF47873B3EB625212D94FEAB4
:100BB000C12343F0004343EA505311F0004F23FA9E
:100BC00002F018BF404270474FF00000704750EAF3
:100BD000013005D111F0004008BF6FF000407047B0
:100BE0004FF00000704700BF4FEA4102B2F1E0430E
:100BF00024BFB3F5001CDCF1FE5C0DD901F0004C04
:100C00004FEAC0024CEA5070B2F1004F40EB830053
:100C100008BF20F00100704711F0804F21D113F17F
:100C20003872BCBF01F00040704741F480114FEAB8
:100C30005252C2F11802C2F1200C10FA0CF320FA41
:100C400002F018BF40F001004FEAC1234FEAD3235E
:100C500003FA0CFC40EA0C0023FA02F34FEA4303C8
:100C6000CCE77FEA625307D150EA01331EBF4FF051
:100C7000FE4040F44000704701F0004040F0FE406C
:100C800040F40000704700BF7BB972B90029BEBFB5
:100C900000204FF0004106E008BF00281CBF6FF0A5
:100CA00000414FF0FF3000F0D3B9ADF1080C6DE911
:100CB00004CE002909DB002B1ADB00F04DF8DDF82B
:100CC00004E0DDE9022304B07047404261EB4101DA
:100CD000002B1BDB00F040F8DDF804E0DDE9022327
:100CE00004B0404261EB4101524263EB4303704761
:100CF000524263EB430300F02FF8DDF804E0DDE936
:100D0000022304B0404261EB41017047524263EB61
:100D1000430300F021F8DDF804E0DDE9022304B02C
:100D2000524263EB4303704753B94AB9002908BFE5
:100D300000281CBF4FF0FF314FF0FF3000F088B9A2
:100D4000ADF1080C6DE904CE00F006F8DDF804E022
:100D5000DDE9022304B070472DE9F047089D8E4677
:100D600004468846002B4AD18A42174662D9B2FA15
:100D700082F64EB1C6F1200301FA06F820FA03F319
:100D8000B74043EA0808B4404FEA174E1FFA87FC01
:100D9000B8FBFEF1230C0EFB118843EA084301FB6C
:100DA0000CF29A4209D9FB1801F1FF3080F0EA8079
:100DB0009A4240F2E78002393B449A1AA3B2B2FB4E
:100DC000FEF00EFB102243EA024300FB0CFC9C45A4
:100DD00009D9FB1800F1FF3280F0D6809C4540F223
:100DE000D3803B44023840EA0140A3EB0C030021CE
:100DF0001DB1F3400022C5E90032BDE8F0878B4207
:100E000005D90DB1C5E9000100210846F5E7B3FA9F
:100E100083F1002946D1734502D3824200F2058155
:100E2000841A6EEB030201209046002DE5D0C5E93F
:100E30000048E2E7002A00F09080B2FA82F6002E25
:100E400040F0A4808A1A030C4FEA174E80B2BCB25D
:100E50000121B2FBFEFC0EFB1C2243EA024304FB11
:100E60000CF29A4207D9FB180CF1FF3802D29A42D1
:100E700000F2E080C4469B1AB3FBFEF20EFB123375
:100E800040EA034302FB04F49C4207D9FB1802F139
:100E9000FF3002D29C4200F2CA8002461B1B42EA8B
:100EA0000C40A5E7C1F120068B4022FA06F71F434C
:100EB0000EFA01F420FA06F32EFA06FE4FEA17495D
:100EC000234300FA01F81FFA87FCBEFBF9F01C0C63
:100ED00009FB10EE44EA0E4400FB0CFEA64502FAA4
:100EE00001F209D93C1900F1FF3A80F09C80A64537
:100EF00040F2998002383C44A4EB0E041FFA83FEB2
:100F0000B4FBF9F309FB13444EEA044403FB0CFC65
:100F1000A44508D93C1903F1FF3E80F08280A44526
:100F20007FD9023B3C4443EA0040A4EB0C04A0FB05
:100F300002EC64457346E14662D35FD05DB1B8EB25
:100F4000030264EB090404FA06F622FA01F31E43D5
:100F5000CC40C5E9006400214FE7B1FBF2FC010C75
:100F600041EA0E4180B240EA01423B4638463C46E7
:100F7000B846BE462026B1FBF7F1A2EB080241EAD3
:100F80000C4166E7014618E710462CE7C6F120023F
:100F90002EFA02F3B740B14020FA02F24FEA174EA0
:100FA0000A43B3FBFEF8BCB20EFB1833110C41EA46
:100FB000034108FB04F9B04089454FEA104380B271
:100FC0003ED9791808F1FF3C01D289451FD8A1EB21
:100FD0000901B1FBFEF909FB04F80EFB191192B2ED
:100FE00042EA0142424529D2BA1809F1FF31C4D27E
:100FF0004245C2D2A9F102013A44BEE7F0459DD272
:10100000BEEB02036CEB070C0138E14696E7A7EB59
:1010100009094944A8F1020CB1FBFEF909FB04F8E7
:10102000DBE773467FE7504666E70846FDE63B444C
:10103000023A33E7ACF1020C3B441CE749469CE71B
:10104000A1EB0901C446B1FBFEF909FB04F8C4E7B2
:10105000704700BF104A08B513680BB9002008BDDF
:10106000013B1360002BF9D10C4A4FF480710C48FE
:10107000136C23F40013136408F0D2F908484FF4FA
:10108000007108F0CDF9074808F000FC0028E5D011
:101090006FF00700E3E700BF1C06002000380240A5
:1010A00000040240200600201FB54FF48054009237
:1010B0000A4601460848CDE90134012308F000FC46
:1010C00040B1054808F0B7FD042814BF6FF00300D5
:1010D0006FF0650004B010BD200600201FB54FF46E
:1010E000805400920A4601460848CDE901340123A4
:1010F00008F0C0FC40B1054808F09DFD042814BF6D
:101100006FF003006FF0650004B010BD20060020F2
:1011100007F040BE114A124B70B500260446C0E9E4
:10112000002301230662C0E90263C0E90466C0E946
:10113000066608F056FB05463146204608F07DFD60
:10114000054331462046EDB2AD1B18BF012508F01E
:101150009AFDB0420CBF2846012070BD00540040EB
:101160000D0300602DE9F0432C4BA9B02C4A2D4D06
:101170002B601368591C11601BB1002029B0BDE819
:10118000F083284608F054FD01460028F5D180225E
:1011900008A834F03FFF244C4FF4804307A84FF0D9
:1011A00012094FF00108079309F07CFC236B032719
:1011B000042602A943F002031C482363236B06960E
:1011C00003F002030093009B4FF48073CDE9048782
:1011D000CDE9023908F040F84FF4007302A9134832
:1011E0000696CDE90239CDE9048708F035F8236C7D
:1011F000284643F400132364236C03F40013019383
:10120000019BFFF787FF014610B16FF00700B5E7BC
:10121000284608F012FD0028AFD0F6E70054004041
:101220001C06002020060020003802400004024076
:10123000014900200CF072BAA925000808B5642005
:101240000AF06CFCFBE7000007B54FF0FF3301909C
:10125000012201A903480AF038FA019803B05DF8A9
:1012600004FB00BFD406002013B500230C4C082259
:101270000DF107018DF80730204623681A624FF000
:10128000FF3301220AF072FA4FF0FF3301220DF111
:10129000070120460AF019FA9DF8070002B010BDB8
:1012A000D406002010B594B01022002102240AA810
:1012B00034F0B0FE1422002103A834F0ABFE1D4B25
:1012C000192108A81A6C42F080521A641B6C03F0B2
:1012D00080530193019B184B1A6842F440421A60F4
:1012E00001221B6803F440430293029B4FF48033B6
:1012F000CDE908234FF48003CDE90E434FF4D873B2
:10130000CDE91244CDE9101309F008F908F072FE96
:101310000F2300200721CDE903344FF4A053CDE97A
:1013200005034FF4805303A8079309F0DFFA14B0C4
:1013300010BD00BF0038024000700040D0B51E4C08
:101340000221012022462DED028B84B09FED1B8AE5
:1013500007F0C8FBD4ED007AF8EEE77AC7EE887A9A
:1013600017EE900AFFF710F9D4ED027A06460F4601
:10137000F8EEE77AC7EE887A17EE900AFFF704F9DD
:10138000CDE90201D4ED017AF8EEE77AC7EE887A6A
:1013900017EE900AFFF7F8F832463B46CDE9000118
:1013A000074834F0CDFC94ED000AB8EEC00A04B052
:1013B000BDEC028BD0BD00BF740600200000C84207
:1013C000A0800308C2B28021014808F0C9B800BF5C
:1013D0000018024010B5064C01210220224607F0F9
:1013E000D9F9D4ED007AFCEEE77A17EE900A10BD39
:1013F0008006002030B54FF480738FB04FF08072BC
:101400000E4D06939F230992012200930023044668
:10141000694628460593CDE90A2341F28832CDE991
:101420000733CDE90C3308F04BFF41F288322146F7
:10143000284609F00FF80FB030BD00BF5C07002050
:1014400000B54FF4807391B04FF04072EF280893CD
:101450004FF0EB0302A90D4802934FF44063099348
:101460004FF4005305934FF00003CDE90A3214BF47
:101470000A2206220F9307926A46CDE90D33CDE981
:10148000003308F061FF11B05DF804FB5C07002039
:101490002DE980489BB01022002101250DA84FF0B6
:1014A000104B34F0B7FD002407F0F0FCC64B0DA83C
:1014B000ADF834501094CDE90EB307F005FD1723B5
:1014C0000DA88DF835508DF83C308DF8425007F05E
:1014D000FBFC042007F0E8FCBFF34F8FBFF36F8FD6
:1014E000BA4AC2F85042BFF34F8FBFF36F8F5369B0
:1014F00043F400335361BFF34F8FBFF36F8FC2F8D4
:101500008440BFF34F8FD2F8803043F6E074C3F3CA
:10151000C900C3F34E335B0103EA0406014646EA01
:1015200081750139C2F86052F9D2203B13F1200FC6
:10153000F2D1BFF34F8F536943F480335361BFF34C
:101540004F8FBFF36F8F07F007FC0024FFF7AAFE51
:10155000142200210DA834F05DFD9D4B10219D4803
:101560001A6B01274FF010084FF0030B42F01002E6
:101570004FF48059C025984E1A634FF0040A1A6B35
:1015800002F010020292029A1A6B42F002021A63EF
:101590001A6B02F002020392039A1A6B42F00102E4
:1015A0001A631A6B02F001020492049A1A6B42F059
:1015B00040021A631A6B02F040020592059A1A6BF8
:1015C00042F400721A631A6B02F400720692069AD1
:1015D0001A6B42F008021A631A6B02F008020792B3
:1015E000079A1A6B42F480621A631A6B02F48062E3
:1015F0000892089A1A6B42F020021A631A6B02F0E2
:1016000020020992099A1A6B42F480721A631A6BCB
:1016100002F480720A920A9A1A6B42F080021A63EC
:101620001A6B02F080020B920B9A1A6B42F00402C2
:101630001A6300221B6B03F004030C930C9B07F04E
:101640008FFF01220821654807F08AFF01224FF42D
:101650008051634807F084FF0022C021614807F0F1
:101660007FFF0022C021604807F07AFF0DA959488A
:10167000CDE90D87CDE90F4B07F0EEFD08230DA94D
:101680005648CDE90D37CDE90F4407F0E5FD0DA92A
:101690005348CDE90D97CDE90F4407F0DDFD0DA9C5
:1016A0005048CDE90D57CDE90F4B07F0D5FD0DA9F9
:1016B0004D48CDE90D57CDE90F4B07F0CDFD4B4817
:1016C0004B4A4C4D026084800762C0E9054407F034
:1016D00027FC494A2846C5E90024C5E90244C5E972
:1016E0000A44C5E90C4407F0BAFC39462846434D84
:1016F00007F06CFD424A40230DA93046B460F46106
:10170000B462C6E900244FF4C072C6E905324FF452
:101710000062C6E908294FF002090722C6E903A8BA
:10172000CDE90FA2CDE90D92CDE911B9CDF84C90DC
:1017300009F042FC29464FF6FF7230460194C5E994
:101740000078C5E9027409F057FC384607F028FB19
:1017500029464FF6FF723046C5E90098C5E9027484
:1017600009F04AFC082329464FF6FF723046C5E9C6
:1017700000B8C5E9023409F03FFC4FF40C734FF692
:10178000FF72294601933046019BAF60EB60C5E9CB
:1017900000A809F031FC40F22B713046194D09F0D8
:1017A0004AFC4FF0204343F2D202642040F2152657
:1017B0001A6007F0F5FA144B144A28462C62C5E962
:1017C0000023C5E9024723E01B00000300ED00E011
:1017D0000038024000040240A00600200028024019
:1017E000002002400008024000180240E4080020E7
:1017F00000300240A408002000B00240840600200F
:10180000400100A05008002068474020005C0040D4
:10181000C5E90444C5E9064407F0E3FF214628462C
:1018200008F00BFA214628465F4D08F02CFA3422C6
:1018300021460DEB020034F0EDFB5C4B28213520F6
:1018400040F2352C2C61AC8685F83640C5E9003471
:101850000923C5E905130B23C5E9070340F21B1350
:101860002846C5E9096340F21D13C5E90244C5E9EC
:101870000BC308F0ABFAFF214FF4806E4FF4F07207
:101880004FF4887328460D941893ADF864408DF892
:101890006640CDE912140521CDE914E14FF0404135
:1018A000CDE90E24CDE9161222460DA9CDE9103955
:1018B00008F057FB3E483F4B0462C0E902A8C0E96C
:1018C00000374FF018084FF4A063DFF824A1C0E9F7
:1018D0000483C0E9064408F0A1FC0DA8FFF78AFDC7
:1018E0009DF83400FFF7ACFD5C2007F0BDFA00F076
:1018F000DBFB31484FF4E13304614462C0E900A3EB
:101900000C23C0E90244C0E90534C0E9074409F0EA
:10191000C7FF00F0F5FB00F0F2FB284834F078FA3E
:1019200080212748224607F01BFE3946484606F02C
:101930006DFD10B1234834F003FAB1EE000A012125
:10194000022006F0FFFE10B11F4834F061FA0221B8
:10195000012006F049FF10B11A4834F0F1F9B1EE58
:10196000000A0221012007F0E7F810B1164834F010
:101970004FFA0AF049F8154A002115480AF07EF896
:10198000144B154A0021186014480AF077F8144BDC
:10199000144A0021186014480AF070F8134B1860BC
:1019A0000AF04CF8FEE700BFA807002000680140DD
:1019B0005C070020001000A0D4060020BA800308B5
:1019C00000180240C5800308DF80030884B10308C3
:1019D0003D1200089C06002060B103080F2100089A
:1019E000980600203CB10308693C000894060020DA
:1019F000001001400268034B9A4201D107F0BEB9C2
:101A0000704700BF00100040704700000D4B82B0CF
:101A10000F216FF001001A6C42F080521A641A6CA8
:101A200002F080520092009A5A6C42F480425A644A
:101A300000225B6C03F480430193019B02B007F02A
:101A4000D3B900BF00380240026882B0084B9A4206
:101A50000BD1D3F8302803F5006342F480521A63A7
:101A60001B6B03F480530193019B02B0704700BFCE
:101A7000003002400E4B07B502689A4215D1A3F51B
:101A8000F04305215A201A6B42F400021A63002227
:101A90001B6B03F400030193019B07F0A5F95A2087
:101AA00003B05DF804EB07F0D1B903B05DF804FBB7
:101AB00000B0024010B5A8B004461422002102A8CC
:101AC00034F0A8FA8422002107A834F0A3FA22688F
:101AD000174B9A422AD14FF4803307A8079308F096
:101AE000E1FF08B1FFF790FF124C4FF4C0720121E3
:101AF0001148236B43F080032363236B03F08003BF
:101B00000093009B1223CDE902230323CDE90413A4
:101B1000042302A9069307F09FFB236C43F4000300
:101B20002364236C03F400030193019B28B010BDD0
:101B3000005C004000380240001C0240026808B50A
:101B4000094B9A420FD1094A80210948136C23F4AA
:101B50000003136407F064FC4FF480710448BDE88F
:101B6000084007F05DBC08BD005C00400038024042
:101B7000001C024070B5ACB004461422002106A837
:101B800034F048FA842200210BA834F043FA22688A
:101B9000484B9A4240F08C800823052001240B9387
:101BA0004FF4C07310930223CDE911304FF400338A
:101BB0000BA8CDE9154308F075FF08B1FFF724FF26
:101BC0003D4B002402250E265A6C06A93B4842F0E4
:101BD00080625A645A6C02F080620092009A1A6B1A
:101BE00042F010021A631A6B02F010020192019A7D
:101BF0001A6B42F400721A631A6B02F400720292BA
:101C0000029A1A6B42F480621A631A6B02F48062C1
:101C10000392039A1A6B42F040021A631A6B02F0A5
:101C200040020492049A1A6B42F480721A631B6B8E
:101C300003F480730593059B1023CDE90635CDE9A8
:101C400008440A9607F008FB4EF6FF7306A91C48E5
:101C50000A96CDE90635CDE9084407F0FDFAF723E9
:101C600006A918480A96CDE90635CDE9084407F0DB
:101C7000F3FA4FF4805306A91348CDE9063509233A
:101C8000CDE908440A9307F0E7FA4FF4464306A962
:101C90000E480A96CDE90635CDE9084407F0DCFA8E
:101CA00058202246052107F09FF8582007F0CEF86B
:101CB0002CB070BD006801400038024000100240A6
:101CC0000024024000280240001802400020024088
:101CD000142200212DE9F0418AB004460DEB0200E8
:101CE00034F098F922682C4B9A4251D12B4B0225A3
:101CF000032409269A6B4FF0040805A9284842F0EE
:101D0000020200279A639A6B02F002020192019A82
:101D10001A6B42F010021A631A6B02F01002029260
:101D2000029A1A6B42F002021A631A6B02F0020264
:101D30000392039A1A6B42F008021A631B6B03F0BA
:101D400008030493049BCDE90585CDE9084607F017
:101D500083FA402305A91348CDE905350A23CDE9C7
:101D60000774099307F078FA05A90E480996CDE99A
:101D70000585CDE9077407F06FFA4FF4605305A9A4
:101D800009480996CDE90535CDE9077407F064FAED
:101D90000AB0BDE8F08100BF001000A0003802408A
:101DA0000010024000040240000C0240F0B5ABB04D
:101DB00004461422002104A834F02CF984220021C6
:101DC00009A834F027F92268204B9A423CD14023DD
:101DD00009A8099308F066FE08B1FFF715FE1C4B31
:101DE0000227002603255A6C072404A9194842F04B
:101DF00010025A645A6C02F010020192019A1A6B96
:101E000042F002021A631A6B02F002020292029A74
:101E10001A6B42F001021A631B6B089403F0010372
:101E20000393039B8023CDE90665CDE9043707F0D2
:101E300013FA4FF4007304A907480894CDE9043756
:101E4000CDE9066507F008FA2BB0F0BD001001409F
:101E5000003802400004024000000240F0B50023B8
:101E600087B00393294B1E68002E4DD10122022713
:101E700003250C241A6001A9254B26489A6B42F0D1
:101E800001029A639B6B03F001030093009B4FF6E2
:101E90008373CDE90454CDE9013707F0DDF948F249
:101EA000331301A91C480594CDE90137CDE9036539
:101EB00007F0D2F94CF2037301A918480594CDE953
:101EC0000137CDE9036507F0C7F94FF63F0301A9D4
:101ED00013480594CDE90137CDE9036507F0BCF956
:101EE000282301A90F480594CDE90137CDE9036501
:101EF00007F0B2F9082301A90B480594CDE9013791
:101F0000CDE9036507F0A8F907B0F0BD0809002086
:101F1000003802400010024000180240000C02404D
:101F200000140240001C024000080240214B1A6CC1
:101F300042F0100270B588B01A641B6C054601A906
:101F400003A803F010030293029B08F08DFD069B8B
:101F50004BBB08F069FD184E184B336040F2E73375
:101F6000F360174BB0FBF3F3013B30467360002383
:101F70003361B360B36109F0B1F9044680B930460A
:101F800009F072F8044658B9362006F05FFF0F2DAD
:101F90000DD822462946362006F026FF094B1D6043
:101FA000204608B070BD08F03FFD4000D3E7012493
:101FB000F6E700BF003802400C0900200010004086
:101FC00040420F00900100207047FEE7FEE7FEE769
:101FD000FEE77047014809F089B800BF0C090020EE
:101FE000014807F061BF00BFA8070020014807F0C3
:101FF00062B800BFA40800200120704708B534F083
:102000001FF9162303604FF0FF3008BD08B534F008
:1020100017F916230360FEE770B50D4614460E4609
:10202000731B9C4201DC204670BDFFF71DF906F8CA
:10203000010BF5E770B50D4614460E46731B9C4226
:1020400001DC204670BD16F8010BFFF7FDF8F5E73F
:102050004FF0FF3070474FF4005300204B60704743
:1020600001207047002070470B4A0346116810B5E5
:1020700009B90A491160106809490A4C0344091B4F
:102080008B4206D934F0DCF80C2303604FF0FF30AC
:1020900010BD1360FCE700BF58090020686A0120EA
:1020A00000000520000A000070470000DFF834D06F
:1020B000002103E00C4B5B58435004310B480C4BA0
:1020C00042189A42F6D30B4A02E0002342F8043B3E
:1020D000094B9A42F9D306F057FD34F0B7F8FFF7F1
:1020E000D7F970470000052064D9030800000020DC
:1020F000E403002000060020646A0120FEE7704728
:1021000008B501F08BF9BDE8084001F00FB901F006
:1021100087B9406870474160704700004FF0E02287
:10212000D2F8FC3D43F08073C2F8FC3D054B064AF3
:10213000D3F8B01F0A43C3F8B02F1A6842F0010267
:102140001A607047001000E055CEACC5521A02EB81
:102150005302B2FBF3F07047014B5868704700BF61
:10216000001000E0704710B504460C2132F091F8E1
:10217000204610BD036810B51B69044631B198476D
:10218000A26863689B1A0344636010BD9847A0600F
:10219000FBE70000024B7020024A1360DB6818471F
:1021A000640100205C090020704710B5044604213A
:1021B00032F06FF8204610BD73B50E4E0D46144632
:1021C000336813B9002002B070BD1B6970209847B6
:1021D0000028F7D03368702001AA0DF106015B6971
:1021E0009847BDF8043001202B60BDF8063023600D
:1021F000E9E700BF5C0900207FB501238DF81720B7
:102200004FF47A72CDE901320DF1170200920A46BD
:102210000146054807F054FB10B1034807F036FBB0
:1022200007B05DF804FB00BF500800207FB5002315
:102230000A464FF47A718DF817300123CDE9013148
:102240000DF1170100910146054807F013FC10B18C
:10225000034807F01BFB9DF8170007B05DF804FB6F
:1022600050080020032823D8DFE800F0020B131ADF
:10227000104B102110481A68B2FA82F2520907F086
:102280006FB90C4B40215A68B2FA82F252090B48DE
:10229000F5E7084B80219A68B2FA82F25209F6E714
:1022A000044B40210648DA68B2FA82F25209E6E7A6
:1022B000704700BF6009002000040240000802408F
:1022C00000180240032823D8DFE800F0020B131A9D
:1022D000104B102110481A68003A18BF012207F06D
:1022E0003FB90C4B40215A68003A18BF01220B48F5
:1022F000F5E7084B80219A68003A18BF0122F6E7FB
:10230000044B40210648DA68003A18BF0122E6E78C
:10231000704700BF6009002000040240000802402E
:102320000018024003280FD8DFE800F00206090B6E
:102330001021064807F019B940210548FAE7802125
:10234000FBE740210348F5E7704700BF0004024067
:10235000000802400018024008B5032813D8DFE83F
:1023600000F0020A0D0F1021084807F0F3F8431E91
:102370005842584108BD40210548F6E78021FBE757
:1023800040210448F1E70020F1E700BF00040240CB
:10239000000802400018024070B5084D00240126D4
:1023A000E0B2FFF7D9FF18B12B68012B18BF2E60E0
:1023B00001340435052CF3D170BD00BF6009002045
:1023C000012380F8781080F879307047002070473A
:1023D00041640039024B18BF01211970704700BFDA
:1023E000235D012000207047836B0BB1084618471E
:1023F00070474FF6FF707047406803689B69184745
:102400007047000038B5044601F058F908492368C0
:102410002046084DD3F88C3098470023284684F88E
:102420004A30FFF77BFE0123256184F8703038BD08
:10243000000000C07009002001F0E4B801F0E8B825
:1024400070B501F065F910490023C1F88430BFF37D
:102450004F8FD1F8803043F6E074C3F3C900C3F363
:102460004E335B0103EA0406024646EA8275013AEE
:10247000C1F87452F9D2203B13F1200FF2D1BFF30F
:102480004F8FBFF36F8F70BD00ED00E001F042B9D8
:1024900001F094B801F064BA01F06CBA01F098B898
:1024A00010B504461AF084FA23682046D3F8AC30FD
:1024B000BDE81040184719F0D9BC10B504467C217E
:1024C00031F0E7FE204610BD90F834100D4B10B5EA
:1024D00090F878401A788C4209D03AB90A490B4AE8
:1024E00008881488108001220C801A7010BD002A00
:1024F000FCD0064A0449148808880C801080002209
:10250000F3E700BF1C5D01201A5D0120185D01206A
:1025100070B50D46194635B9094B40F2D221094A2A
:10252000094832F0F3FDC0E90F52003A074B18BFDB
:1025300001221A700368BDE87040D3F88C30184748
:10254000258103085D810308AB810308225D01201A
:1025500008B5094B1B888B4203D8084B1B88934254
:1025600005D9074B9E21074A074832F0CFFD074B9C
:102570001980074B1A8008BD185D01201A5D0120E3
:10258000F081030853820308AB8103081E5D01201C
:10259000205D0120034690F87A0018B1586803685E
:1025A0001B68184770470000014608B5034B1868C0
:1025B00001B101211AF016FA012008BD245D0120A5
:1025C000034B00225A609A60024A1A60704700BFAB
:1025D00070090020B0B103080121002208B50846A7
:1025E00009F054FB0A4B186028B90A4B28210A4A03
:1025F0000A4832F08BFD00220421012009F010FC72
:10260000074B186018B9074B2C21034AF0E708BDA7
:102610008009002096820308DF8203080E830308E6
:102620007C0900205B830308024B4FF0FF311868E0
:1026300009F084BB80090020014B186809F0BABB7F
:1026400080090020024B0021186809F077BB00BF09
:1026500080090020FFF7F0BF0023034803491A4612
:10266000006809F023BC00BF7C09002004000020A2
:1026700013B50023074C01A91A46206809F058FC3D
:102680004FF0FF33002201A9206809F051FC02B08D
:1026900010BD00BF7C09002003685B6C1847012057
:1026A000704703689B6A1847FEE700000E4B82B034
:1026B0001A6B42F400021A631A6B02F400020192D0
:1026C000019A1A6942F400021A611A6922F400029E
:1026D0001A61064B064A1A61064A5A614FF0806237
:1026E000054B9A6002B0704700380240A4080020F1
:1026F00085290008A926000800E100E040F2EF303B
:1027000070470000054B4FF080620360044BC3F834
:102710008820BFF34F8FBFF36F8F7047C8B2030895
:1027200000E100E010B504464FF45A61FFF7EAFFFC
:10273000204631F0AEFD204610BD000008B50A2845
:1027400009D8DFE800F006100E080808081010107D
:102750001000022008BD054B9021054A054832F0C3
:10276000D5FC0020F6E70120F4E700BF9D830308B5
:10277000B88303080384030838B50C46887FFFF745
:10278000DDFF174BA58AE28A586342EA05422169B8
:102790005A64628BD963521B1A642568082D0ED1C6
:1027A0009A611A6158620F4A207F42EA0062DA6138
:1027B000E2681A620C4A5961D9601A6038BD002279
:1027C000D8611A61E1680A0A4809C1F3C40102F438
:1027D000784200F4FC6002430A439A63034AECE740
:1027E00000B00240090001000123020001230300A0
:1027F00008B50B280BD8DFE800F00612100A0A0A09
:102800000A0808080808022008BD0520FCE7054B57
:102810006F21054A054832F079FC0020F4E70120D9
:10282000F2E700BF9D8303084E8403080384030876
:102830002DE9F04191F81D800C464046FFF7D8FF86
:10284000A77F05463846FFF7D3FF06463846FFF711
:1028500075FFA18A628B434B521A1A649A61228BCC
:10286000521A1A61E28A586342EA014221695A64A3
:102870006268D963DA602068802828D0227F0FD868
:10288000202866D0402864D004281AD045EA026582
:10289000344BB84545F40035DD6160D0324A44E040
:1028A000B0F5807F04D0B0F5007FEFD12F4800E075
:1028B0002F4840EA0262DA61E2681A625E62596198
:1028C00032E045EA026242F40032DA61F6E7A068DB
:1028D000021DDA62227F45EA026545F40035DD61BA
:1028E0005E625961017841B1012921D0214B4FF439
:1028F0008D71214A214832F009FCDA69418822F4BD
:102900007F42013922F0100242EA01220121DA61FC
:10291000144BDA6942F02002DA61DA699206FCD4DB
:1029200010229A600029B9D0154A1A60BDE8F081DA
:10293000B2F1FF01DA69408822F47F4218BF012119
:10294000013822F0100242EA002242F01002DA615D
:10295000DEE745EA0262034B42F40032B5E742F299
:102960000132E2E700B00240012301000900020049
:102970000A00020098840308B28403080384030851
:1029800001230200024B1B68586803685B69184703
:10299000245D012070B504460A4B0C300026254604
:1029A000602260602672667245F8203B29461AF064
:1029B0006FF904F55A63EE6024359D42FBD1204641
:1029C00070BD00BFC8B20308034B1A68D207FCD41D
:1029D00023229A60704700BF00B00240094B5A6939
:1029E000D2030AD5BFF34F8F08440029A0EB0102A0
:1029F00004DCBFF34F8FBFF36F8F70472039C3F8EC
:102A00006822F2E700ED00E030B5104C2568ED07D4
:102A1000FCD423250904FF2BA56041F001014FF0F0
:102A2000020565636164E0630AD00949656241EAB1
:102A30000363E361074B22626061E060236030BDA5
:102A4000E561039BA363044BF8E700BF00B00240BD
:102A500009000100010002000100030030B50F4C25
:102A60002568ED07FCD423251204FF2BA56042F056
:102A700001024FF0020565636264E063E16008D023
:102A80001B0643F00213E361054B6562606123603E
:102A900030BD044BE3610123F9E700BF00B0024001
:102AA00001000200020002FF30B50B4C2568ED0763
:102AB000FCD4232512041B06A56042F00102022566
:102AC00043F4003365636264E063E160E361034BF8
:102AD00065626061236030BD00B002400100020009
:102AE0004069704790F844007047036B23B9C06A8F
:102AF000003818BF01207047012070478068704778
:102B0000043010B50C460FC884E80F0010BD7047A4
:102B100008B5034A40F21221024B034832F0F6FA9C
:102B2000F08403087B9B03084B85030810B504461B
:102B3000482131F0AEFB204610BD00002DE9F043E6
:102B40001C46436BADF51F7D05460E461746002B10
:102B500037D0002203A8DFF8A890CDE9013211F0A8
:102B6000D3FA4FF4F4725021249024A80BF081FA88
:102B70003A46314624A80CF0CBF9012124A80BF0E9
:102B800073FB022324A88DF8D8300BF00EFCBDF89F
:102B900098322B9ABDF89C629342A89F28BF134697
:102BA000419A964203EB4308A7EB430728BF16461A
:102BB000479B9E4209D824A80BF078FB24A80BF071
:102BC000A5FA0DF51F7DBDE8F083012201A924A817
:102BD0000BF034FC6B6B03EB0800984201D83C44CB
:102BE000E6E759789A78C90009EA022201F4FC6103
:102BF0000A4313F8031B42EAD10224F8022BECE744
:102C000000F8FFFF0A4A02600022C0E90522C0E97D
:102C10000722C0E90922C0E90B22C0E90D12C0E970
:102C20000F2280F84420C0E90322C0E90122704746
:102C300018B3030810B40C4611461A46036B3BB197
:102C4000036C806BE41A20445DF8044B33F0EAB95E
:102C5000C06AF8E7036B10B573B1036C826BC91AD5
:102C60005318525C98785C780004DB7840EA0420C2
:102C7000104340EA036010BDC36A5858FBE7036B7A
:102C800043B1036CC91A836B5A18585C527840EAF6
:102C900002207047C36A585A7047000070B5044656
:102CA000006B0D461646D8B1E36B934208D2092358
:102CB0000D4A65210D4884F844300D4B32F026FA58
:102CC0000368DB689847206B3246A16B03681B6979
:102CD000984710B90D2384F84430A06B256470BD6B
:102CE000E06A0844FBE700BFB58503084B8503088D
:102CF000A28503082DE9F843436904462BB9234B09
:102D0000AA21234A234832F001FA08228169FFF7F9
:102D1000C5FFA16943F2300646F26437043120460C
:102D2000FFF798FFA3691844A36A00F108029A42CA
:102D300006D3012300206361236AA361BDE8F88301
:102D4000636909300822013320F0010120466361E4
:102D5000A161FFF7A3FFD4F8189020464946FFF77A
:102D60008EFF09F1020180462046FFF788FF09F136
:102D7000040105462046FFF76DFFB045D2D1BD42A4
:102D8000D0D10028CED00120D8E700BFF7850308B6
:102D9000408603084B8503082DE9F04F0446ADF546
:102DA0001F7D8A461646816908229846FFF776FFFE
:102DB000A7692046391DFFF74DFF07F108010246BC
:102DC00005462046FFF76AFF636B074633B93C4B65
:102DD00040F2AB113B4A3C4832F098F9002203A87C
:102DE000CDE9013211F090F94FF4F47250212490A2
:102DF00024A80BF03EF92A46394624A80CF088F89E
:102E0000012124A80BF030FA022324A88DF8D83031
:102E10000BF0CBFABAF90250479BAB4229D3BAF96F
:102E200000904FEA4808BAF804702B9B08FB05662F
:102E30004F44BAF80250DFF894B03FB29F4228BF27
:102E40001F46BAF8063009EB490A1D44419B2DB2D2
:102E50009D4228BF1D46479B9D4210D824A80BF0D9
:102E600025FA24A80BF052F901200DF51F7DBDE8CD
:102E7000F08F012201A924A80BF0E0FACCE701228F
:102E800001A924A80BF0DAFA626B49465244B94210
:102E900002F1030201D34644DDE712F8020C12F8F6
:102EA000013CC0000BEA032300F4FC60034312F86A
:102EB000030C43EAD00326F811300131E7E700BFE5
:102EC00073860308C98603084B85030800F8FFFFD3
:102ED0000129036838BF0121DB6A70B50D4604463D
:102EE0009847A84204D223682046DB6A98470546E3
:102EF0006B1EE6691022204606EB031606F1080158
:102F0000FFF7CCFE06F110012046FFF7A3FE236A6F
:102F1000043B0344C4E9055370BD0000002148226E
:102F20002DE9F0410446816180F84410FFF7B6FEB8
:102F3000A6690423624A31462046FFF77BFE40B172
:102F40000323604AF22184F844305F4B5F4832F03B
:102F5000DDF806F1080104235D4A2046A161FFF770
:102F600069FE30B10423574AFA2184F84430594BA2
:102F7000ECE706F10C010423574A2046A161FFF754
:102F800059FE074638B105234E4A40F2011184F834
:102F90004430524BDAE706F110012046FFF75AFEA3
:102FA000054620B94E4B40F20711464ACEE706F1DE
:102FB000140804234B4A20464146FFF73BFE0028F5
:102FC00049D0062384F844300423474A06F1180107
:102FD0002046FFF72FFE00283FD0072384F8443017
:102FE0004544424F0C2220462946FFF757FE05F183
:102FF000080604233A4620463146FFF71BFE94F8A4
:103000004430002848D0002B48D1A36AAB4249D8AD
:1030100005F10C0304352046A3612946FFF71AFE8B
:103020003044294660622046FFF714FE064404221D
:1030300020463146FFF732FE04232D4A3146204612
:10304000FFF7F8FD002838D10123E6616361A36929
:103050002362BDE8F0810127B6E7002FC0D006F15A
:1030600020012046FFF7F6FD4FF47A7306F1300198
:10307000B0FBF3F060602046FFF7ECFD06F1400185
:10308000A0602046FFF7E6FD06F14401E06020461F
:10309000FFF7E0FD2061A3E7002BB9D00A2384F8F5
:1030A0004430D6E7291D2046FFF7D4FD85190C22B0
:1030B00020462946FFF7F2FD99E70B23EFE700BF13
:1030C0002387030841870308288703084B850308E3
:1030D0006E870308738703088B87030890870308AC
:1030E000A6870308B2870308B7870308BC870308CD
:1030F000C1870308C0E90A2100220263FFF70EBF5F
:1031000010B5002304460846E3620B6821639B6800
:103110009847A0622046BDE81040FFF7FFBEF0B41C
:10312000069FBDF81050BDF8146032B12BB1049564
:10313000CDE90567F0BCFFF701BDF0BC70470000AA
:103140002DE9F04F9946436985B004460F469046F5
:103150002BB9294B7721294A294831F0D7FF08227A
:103160008169FFF79BFDA66920463146FFF787FD81
:10317000B11C83462046FFF782FD311D8246204662
:10318000FFF768FD06F10801A36A05460A189A428E
:1031900026D243F230039B4517D146F264339A4559
:1031A00013D190B10246A1612046FFF777FD0E9B37
:1031B00001462A462046CDF80080CDE901933B46E2
:1031C000FFF7ADFF636901336361A3692B4405B960
:1031D00008330133626A23F001039342A36109D1EA
:1031E000012301206361236AA36180F0010005B01F
:1031F000BDE8F08F0020F8E7F7850308C6870308CD
:103200004B850308012070470C2070470C2303FBFB
:103210000100083070470C2303FB010008307047A1
:103220000120704740F28440704740F2844303FB22
:1032300001000830704740F2844303FB010008306E
:103240007047012070471020704700EB01100830D4
:10325000704700EB011008307047084600F02CBFA3
:10326000034B10B50446036017F050FF204610BD15
:10327000C0B3030810B50446FFF7F2FF142120463F
:1032800031F007F8204610BD034B10B5044603602B
:1032900017F03CFF204610BD8CB3030810B5044660
:1032A000FFF7F2FF40F28C41204630F0F2FF20465B
:1032B00010BD0000034B10B50446036017F026FF55
:1032C000204610BD58B3030810B50446FFF7F2FFBF
:1032D0001821204630F0DDFF204610BD084B10B508
:1032E0000446036000F59760FFF7BAFF04F12C0075
:1032F000FFF7CAFF04F11400FFF7DCFF204610BD02
:10330000F4B3030808B50248FFF7E8FF08BD00BFA3
:103310005418002010B50446FFF7E0FF40F2346176
:10332000204630F0B6FF204610BD00002DE9F341E5
:1033300000F038FD0024054600F038FD2346014624
:1033400022462846009421F057FF274B274A204663
:10335000274D1A6001F068FB264B274A27489A60E0
:1033600021F0B2FE2B68BFF35B8FDB0735D4284614
:1033700030F091FF88B3224C224B04F59B6604F198
:10338000140004F12C0804F5976723606060C4F80A
:103390000880E760266117F0BBFE1B4B4046636167
:1033A00017F0B6FE194B3846E36217F0B1FE184B22
:1033B00004F2CC40C4F8B83401F0C4FC224604F254
:1033C000CC41304601F0AEFB304600F075FE1148AE
:1033D00031F0BAFE284630F06AFF0F4802B0BDE86F
:1033E000F041FFF70FB800BF885D0120000A002000
:1033F00050180020200A0020040A002008000020A5
:1034000054180020F4B3030858B303088CB303081E
:10341000C0B303080533000884090020704700008A
:10342000014818F08CBD00BF8409002070B5244EFF
:10343000244B254C3046254D2360FFF7ABFA284638
:1034400026F0ECFF22481FF0AFFB224B00224FF486
:10345000807121481A8683F858205A6683F87020B4
:103460005A67DC60C3E912121C49C3E91A121C49ED
:1034700099671C490B604FF4F07101801A48018074
:103480004FF488711948C3E90422C3E90622C3E94D
:103490000822C3E90A22C3E90E22C3E91022C3E9C4
:1034A0001422C3E91722C3E901650180104883F89B
:1034B000342001800F490A700F4A1A6070BD00BFA6
:1034C000AC0A0020D8B103084C180020200A0020C4
:1034D000040A002084090020185D01200100000179
:1034E00000000101245D01201E5D01201A5D012004
:1034F000205D01201C5D0120F0B103080148FFF7A9
:1035000001B900BFAC0A00200020704781807047DD
:10351000C180704701817047418170477047704793
:1035200070477047704710B4C4880368121B8488C2
:103530005B6D091B12B25DF8044B09B218474FF6D8
:10354000FF7383814FF0FF3303621368C361106020
:103550007047002070478B88838001207047704738
:1035600080F82610704790F82600704710B50022AA
:10357000B1F90840B1F90A10028042808480C1800C
:1035800010BD0022028042808280C2807047017795
:10359000704780ED080A704780F82410704780F863
:1035A0002510704701207047983070478C30704765
:1035B000843070477047704770470000034B90227B
:1035C00083F85A2383F85823704700BF00E100E0D6
:1035D000094A0A49D3680A48C3F30A03013B9BB26C
:1035E0000B801169C1F30A01013901801364536B27
:1035F00043F0010353637047006801408A1E0020B6
:10360000881E0020014BD3F8AC00704700680140D1
:10361000024B0122C3F8AC105A62704700680140A7
:10362000124A5369DB0370B51ED50023C2F88430FB
:10363000BFF34F8FD2F8803043F6E074C3F3C90074
:10364000C3F34E335B0103EA0406014646EA817583
:103650000139C2F87452F9D2203B13F1200FF2D194
:10366000BFF34F8FBFF36F8F70BD00BF00ED00E061
:1036700070473823002201FB0333C25490F83830DE
:103680000BB9036C83647047704780F84C10704727
:1036900010B50446582130F0FCFD204610BD10B591
:1036A00004462C2130F0F5FD204610BD10B504462F
:1036B000BC2130F0EEFD204610BD000038B50446B8
:1036C00018F029FC23685D6E1EF0F6F801462046CE
:1036D000A8472368084A2046D3F888500023A2F55B
:1036E0007F31A847054B064A5A60064A1A649A6415
:1036F0004FF4FF225A6438BD00F807C04C1F002069
:10370000A41F002000F40BC018F0ECBB18F0F6BBAF
:1037100018F0B2BB18F021BD90F8252012B1036853
:103720005B6918477047000008B531B1044B40F29F
:103730009711044A044831F0E9FC90F8390008BDBB
:103740002188030835880308C289030810B531B100
:10375000064B40F29111064A064831F0D7FC40680A
:1037600011460368BDE810401B6B18472188030809
:10377000048A0308C289030808B529B1034B7A21DA
:10378000034A044831F0C2FC006908BD21880308DF
:10379000B58B0308C289030808B529B1054B8321FD
:1037A000054A064831F0B2FC41618160C0E9063249
:1037B00008BD00BF218803086D8D0308C289030876
:1037C00010B5044629B1274BA421274A274831F0D8
:1037D0009DFC052A34D8DFE802F003292F34393E56
:1037E000406803681B69984750B34FF0FF31606D24
:1037F00008F0F0F90023012294F83E1084F83B30E1
:1038000084F83920A360636101B1226284F83E30FC
:103810006362E36A2BB90123206D84F83A3008F023
:10382000C9FA606DBDE8104008F004BA002380F8C2
:10383000393084F83E3003E0036200238360436143
:1038400010BD0362002383604361F2E7002380F828
:1038500039300123EDE7003B18BF012380F83D30EC
:10386000EEE700BF218803082C8F0308C2890308F4
:1038700090F825201AB190F8242002B11860704702
:1038800070B50446164629B1314BE721314A32481A
:1038900031F03CFC90F8393033B1304B1B6893F871
:1038A0006B20436913444361E36A002B4DD0E16907
:1038B000D4E905325343A2684A43934220D2236A93
:1038C000002B42D04FF0FF31606D08F083F9236A7E
:1038D0000BB10023E362E36AFBB90125606D08F0D8
:1038E000A9F994F839300BB9236A3BB1E36A2BB9D3
:1038F0000123206D84F83A3008F05CFA284670BD48
:1039000094F84C000028DDD09B1AB3FBF1F29942E9
:1039100098BF02F1FF326262D4E7002294F83C5073
:10392000A3623046E262E2682261A2680132A260CC
:10393000336333685B699847002DCED194F83D30EE
:10394000002BCBD184F83950C8E70125C9E700BF67
:103950002188030803910308C2890308245D01201C
:10396000034B4FF080629A604FF080729A6070470C
:1039700000E100E0084B4FF08062C3F88820BFF3FD
:103980004F8FBFF36F8F4FF08072C3F88820BFF363
:103990004F8FBFF36F8F704700E100E038B50346EB
:1039A00090F8380038BB01229860D8609A634FF4D1
:1039B000807258619A874FF4F0729861D8611862EA
:1039C00058629862D8621863586383F83E00CA86CA
:1039D0004FF4887281F834000A8708639A6C186182
:1039E00002F5FF24D3E9101529448C420AD9084B6B
:1039F0005821084A03E0084B40F2F511074A0848ED
:103A000031F084FB1A6302F57F329C645A6338BD3F
:103A100061940308A1940308A7920308D7920308AE
:103A2000C2890308002370B5124E05468380124BED
:103A30000360336893F858200AB1D86C00B99868CD
:103A40000368DB6A98473368B0FA80F4D86C64097D
:103A500030B10368DB6A9847002808BF44F00104CE
:103A60002CB9064B2C21064A064831F04FFB28465C
:103A700070BD00BF245D012008B403084796030809
:103A8000A5960308DE96030870B5244E3568BFF38B
:103A90005B8F15F001053FD1304630F0FCFB00286C
:103AA0003AD01F4C1F4B04F134002561E584A56218
:103AB000A585C4E90035C4E902551FF0D4FA04F124
:103AC00058001AF0E3FC184B2046A365174B40F84A
:103AD000843BFFF7A7FF164B1648C4F88430243305
:103AE000C4F89050C4F88C306423C4F89C50C4F8D7
:103AF000A850C4E928350023C4F8AC30C4F8B0306D
:103B0000C4F8B430C4F8B8300B4BC4F8983031F076
:103B10001BFB304630F0CBFB014870BD8C1E0020F3
:103B2000901E0020A0CB030828B40308A0B403080B
:103B300054CB0308B935000834CB030810B5144C36
:103B4000236823B3134B144A1B6C11888B4213D187
:103B5000124B198806F032FA226892F86A30013363
:103B600082F86A30FEF778FD206818F021FF002007
:103B7000BDE81040FEF776BB06F020FA2068036827
:103B80001B6A98470020BDE81040FEF79BBB10BDA4
:103B9000245D0120006801408A1E0020881E00204C
:103BA0002DE9F74304464FF4707894F83A304FF01B
:103BB000FF31002B31D0606D08F00CF8276BA36A41
:103BC000BB4200D1676B266A656856B32B683146E5
:103BD00028465B6A98470023236284F83B30606D77
:103BE00008F028F82B684FF4F0723946CDF80080C1
:103BF00028465E694FF48873B0474FF0FF310646A0
:103C0000606D07F0E7FF94F83B30E3B1002384F8E0
:103C10003B30606D08F00EF8C7E7206D08F08EF8B5
:103C2000C3E7636A002BDAD02B682846D3E90993EF
:103C30009847616A01442846C847A368626A666279
:103C40001344A360CBE7E7625EB12B6828469B6A0A
:103C5000984701380023E06084F83C6084F83A30EB
:103C6000D7E70120F6E70000014808B5FFF798FF05
:103C70004C1F00200368042270B504465E6A0023CE
:103C80000D46B0474FF0FF31606D07F0A3FF3823BA
:103C900003FB0542D16A09B10021D16203FB05454E
:103CA000012385F83B30002385F83930606DBDE88D
:103CB000704007F0BFBF38B500EB810304460D46E6
:103CC000114658680368DB68984729462046FFF785
:103CD000D1FF38BD70B50D461146044600EB850294
:103CE0005068026896681A46B04729462046FFF792
:103CF000C1FF70BD38B5164900251648FEF782FF92
:103D0000154C164B01202A46294623604FF4807338
:103D1000A564A38784F84C0084F83E50C4E910558C
:103D2000C4E91455C4E90155C4E90355C4E905556E
:103D3000C4E90755C4E90955C4E90B55C4E90D5553
:103D400007F0A4FF2065284607F000FF606538BD36
:103D5000EC1F0020A41F00204C1F0020ECB403081F
:103D6000704710B50446042130F093FA204610BD88
:103D700008B5032913D8DFE801F002060A0E00F0A7
:103D80009FFE006808BD00F09BFE4068FAE700F067
:103D900097FE8068F6E700F093FEC068F2E7002027
:103DA000F0E700000048704738B503080B20704763
:103DB00013B5002451B1036801AA01948DF80340A2
:103DC0009C680DF10303A04702B010BD0846FBE755
:103DD000C0897047008A7047C088704780887047E4
:103DE000807A00F07F007047807AC0097047002019
:103DF000704700009FED010A704700BF00000000FF
:103E0000704710B50446082130F043FA204610BD33
:103E10007047704700F598730868496803C3704796
:103E2000704770474160704770477047064BC0F855
:103E30004801C0F84C310023C0F8503100F5A2739E
:103E4000C0F84031704700BFED3E00080123037207
:103E50007047704710B441680346C2689B685410AD
:103E600001EB6200D20748BF0A595DF8044B48BF16
:103E7000D35818470346406830B19A681AB9D868D1
:103E800000F0010070470120704710B504460C2176
:103E900030F0FFF9204610BD10B50446102130F077
:103EA000F8F9204610BD10B504464FF4AE7130F05D
:103EB000F0F9204610BD10B51DF0FEFC0368BDE80A
:103EC0001040DB6B184710B50446D0F8400158B1DC
:103ED0000368DB68984738B1D4F8400103689B68F1
:103EE00098470023C4F8403110BD00002DE9F14F80
:103EF000D0E9556A0746B06803681B6A984740F2E4
:103F00008343984205D8444BA321444A444831F0A6
:103F1000FDF8706803681B6A98470F2803D8414B67
:103F2000A4213E4AF2E7F06803681B6A98470B2811
:103F300003D83D4BA521394AE8E7DFF8F4901DF09E
:103F4000BBFC04301DF0F6FCD9F8000010B103688A
:103F5000DB689847D9F8000010B103681B689847E0
:103F6000DFF8D080D8F8000010B103685B6998478B
:103F7000D7F83C0110B103685B689847D8F8000097
:103F800010B103681B689847D7F83C0110B103686B
:103F90009B689847F06800214FF0000B03685B6A4C
:103FA0009847224B0446C0F804B080F808B0594640
:103FB0000360B06803685B6A9847054600F0FEFD41
:103FC0007068594603685B6A98470646294600F0C0
:103FD000D3FD331DC7F83C612846C9F80040C8F836
:103FE0000050CAF800302B68C6F808A0DB68EE6302
:103FF0009847336830461B689847214628461FF08B
:1040000021FD236820461B699847236820465B6989
:1040100001B0BDE8F04F184740970308CE9703085A
:104020009A980308E19803088499030898B603084E
:104030006C5D0120685D0120044B1B6893F85820DB
:104040000AB1D86C00B99868704700BF245D0120A0
:10405000F8B5174604460E461DF03EFD124B0025EE
:104060001C602946114B2360114BC4E95135114B9B
:104070001868C4E953550368C4E94F559B68C4E9FF
:1040800055769847284600F0CFFCFFF7D5FF28F07B
:1040900018F8FFF7D1FF28F08FF8FFF7CDFF28F0D1
:1040A00097F82046F8BD00BF785D012044B60308AC
:1040B0002CB60308245D0120064BC0F84801C0F867
:1040C0004C310023C0F8503100F5A273C0F84031E4
:1040D000704700BFED3E0008406A7047806A704735
:1040E00070478B88C069DB0A0A6850F823001044C7
:1040F000704710B50446BAB1107B68B1537BD27AD1
:104100001B0203F4E0631A43236A03EB82031A8859
:104110008A4202D193F9020010BD05D80138043358
:1041200080B20028F3D1F7E70020F5E710B5044688
:104130002C2130F0AEF8204610BD000030B58BB019
:104140000446BDF860500895BDF85C5007959DF891
:10415000505006959DF84C5005959DF84850049593
:104160009DF8445003959DF8405002959DF83C50B1
:104170000195BDF8385000951FF032F8064B2046E7
:104180002360159BE361169B2362199B63621A9B54
:10419000A3620BB030BD00BFBCB6030870477047C8
:1041A00070477047704730B585B003680446018199
:1041B0006D460146D3F884303C342846984795E84C
:1041C000070084E8070005B030BD30B585B003684E
:1041D000044641816D460146D3F884303C3428467C
:1041E000984795E8070084E8070005B030BD002235
:1041F000028042808280C280704780F8361070470B
:10420000036870B504461B6B154698472368204623
:1042100029465B6EBDE87040184700207047806CEF
:10422000704770477047704710B504464C2130F016
:1042300030F8204610BD10B5044640F2744130F00D
:1042400028F8204610BD08B5FFF766FA08BD000043
:10425000036870B55E6B0446114B8DB21B682BB9B9
:10426000104B6C21104A114830F050FF1049828DDC
:104270000988914203D80F4B6D210B4AF3E713F8DD
:1042800012200D4B1B6853F8220003681B6B9847E4
:10429000291A3346204609B2BDE87040184700BFCE
:1042A0007C5D0120279A0308699A0308A49A0308F1
:1042B000805D0120EB9A0308845D012000224FF00D
:1042C000FF318260C0E900217047036870B5044681
:1042D0001B6B154698472368204629465B6BBDE853
:1042E0007040184770B504461D46BDF91060FFF7D1
:1042F000ECFF2368294620469B6B9847236831468C
:104300002046DB6BBDE87040184700000022C0E982
:104310000122C0E90322C0E90522C0E907224FF4C7
:1043200080728284014A0260704700BF24B703088C
:1043300038B504460D462622002131F06BFE20469A
:10434000FFF7E4FF064B2046294623602B88E384D1
:10435000FF2384F828301AF0D0FE204638BD00BF75
:10436000E0CD030810B504462622002131F052FEAC
:104370002046FFF7CBFF0A4B4FF47F022046236015
:10438000084BA3624FF6FF73A3850023C4E90C32E8
:104390004FF0FF322387E363C4E9102310BD00BF51
:1043A00064CC03081CB603082DE9F04F04468FB017
:1043B00000251FF09BF92746A34B26222946E563DB
:1043C00004F16C0B47F8403B384631F023FE384689
:1043D000FFF79CFF9D4B4FF6FF790CA92364FF2349
:1043E0005846A56684F8663004F59478ADF83090A8
:1043F000FFF79EFF04F1980304F5B87604F1040A70
:1044000018460393FFF7AEFF04F1E0031846049348
:10441000FFF7A8FF4046FFF7A5FF304617F04CF81E
:1044200004F522730CA9ADF8309018460793FFF7F6
:104430007FFF04F52D7304F5407918460693FFF7C6
:1044400091FF834B4846C4F8FC52C4F8B43217F0CD
:1044500033F804F5836318460593FFF783FF4FF4A1
:1044600088732A463846294600934FF4F073FFF7C5
:1044700039FF4FF07F4339465046A36608AF17F027
:1044800061FA2A4658462946FFF71FFF58460CA9ED
:10449000ADF830501AF031FE594650464FF0FF3B10
:1044A00017F050FA5B2262210398FFF70EFF039981
:1044B0003846C4F8C8B0A4F8CC501AF0E5F804F1B6
:1044C000D40397E8070083E80700624B0CA9039820
:1044D0000C93ADF834501AF071FB0399504617F065
:1044E00031FA5C2240F271110498FFF7EEFE049954
:1044F0003846C4F810B1A4F814511AF0C5F804F500
:104500008E7397E8070083E80700524B4FF00102D3
:104510000CA904980C93ADF834201AF04FFB0499C1
:10452000504617F00FFAC22240466921FFF7CDFE30
:1045300041463846C4F858B1A4F85C511AF0A4F8C2
:1045400004F5B27397E8070083E80700414B404643
:104550000CA90C930223ADF834301AF02FFB41461E
:1045600050464FF0120817F0EDF9304675222946F3
:10457000FFF7ABFE3046F42310224146CDF8008011
:1045800016F048FE6423304629461A46009517F077
:1045900017F83046294616F0E4FD4FF00803304680
:1045A0000CA9ADF8303017F05FF930460A2116F04B
:1045B0001EFE30463C2116F045FE3046012116F025
:1045C000F7FD3146504604F58C6617F0BBF97622AC
:1045D0004FF4A4710798FFF778FE07230CA90798FA
:1045E000ADF830301AF089FD0799504617F0AAF956
:1045F0005A2396224FF4A471069800939823FFF74C
:1046000071FED4F8B43206993846D3F88430C4F831
:10461000E4B2A4F8E852984704F53C7397E8070021
:1046200083E807000C4B1B682BB90C4B60210C4A2C
:104630000C4830F06BFD0C4B1B88042B18D80B4B2F
:104640006121074AF4E700BF1CB80308F4CC030853
:104650008CB703081CB603087C5D0120279A030869
:10466000299B0308A49A0308805D0120EB9A0308A4
:10467000364B0421186800F013FA354A03460A2124
:10468000304620F013FD0523C4F8FC620CA9314E1E
:104690000698ADF834300C961AF090FA0699504608
:1046A00017F050F929464846DC22FFF70EFE414636
:1046B0004846F4231022CDF8008016F0ABFD6423A9
:1046C000294648461A46009516F07AFF294648467C
:1046D00016F047FD4FF008030CA94846ADF83030FE
:1046E00017F0C2F848460A2116F081FD48463C21E1
:1046F00016F0A8FD4846012116F05AFD49465046DD
:1047000017F020F908220598B021FFF7DEFD059982
:104710003846C4F848B4A4F84C5419F0B5FF04F274
:10472000544397E8070083E8070003230CA9059882
:10473000ADF834300C961AF041FA5046059917F04E
:1047400001F920460FB0BDE8F08F00BF885D012061
:10475000C1AC03081CB603087047000030B5164D05
:104760008FB02C68BFF35B8F14F0010420D1284672
:104770002FF091FDE0B13F23012210490993104B26
:1047800010480893104B0A940594CDE9064304237E
:10479000CDE903320A23CDE90B440093CDE901446E
:1047A000FFF7CCFC094830F0CFFC28462FF07FFD06
:1047B00004480FB030BD00BF6C270020FC440A90B5
:1047C00010D903087027002028D90308594700088A
:1047D0007047000030B5164D8FB02C68BFF35B8F6B
:1047E00014F0010421D128462FF055FDE8B13F23F4
:1047F000112210490993104B10480893104B0A944A
:104800000793012301940493CDE905430423CDE9E3
:1048100002431423CDE90B440093FFF78FFC0948B2
:1048200030F092FC28462FF042FD04480FB030BD16
:104830009C2700200C450A9014D90308A0270020CB
:104840002CD90308D14700087047000030B5164D39
:104850008FB02C68BFF35B8F14F0010420D1284681
:104860002FF019FDE0B13F23012210490993104BAD
:1048700010480893104B0A940594CDE9064304238D
:10488000CDE903322823CDE90B440093CDE901445F
:10489000FFF754FC094830F057FC28462FF007FD7D
:1048A00004480FB030BD00BFCC270020FC450A9063
:1048B00020D90308D027002030D903084948000830
:1048C0007047000030B5174D8FB02C68BFF35B8F79
:1048D00014F0010422D128462FF0DDFCF0B12E2384
:1048E000012211490993114B11480893114B0A9465
:1048F0000594CDE906430423CDE9033250230B226E
:1049000000935123CDE90B44CDE90144FFF716FC98
:10491000094830F019FC28462FF0C9FC04480FB0B4
:1049200030BD00BFFC2700200C460A9024D90308A4
:104930000028002034D90308C1480008002070472F
:10494000002070470EB403B503AB002153F8042BCD
:1049500001931DF049FF02B05DF804EB03B070470E
:104960000CB407B504AB53F8042B01931DF03CFFC6
:1049700003B05DF804EB02B070470000436C10B563
:10498000044673B3038F2BB9184BC521184A194835
:1049900030F0BCFBC38E00EB43035B8C0BB31FF00A
:1049A000DDFD238F012B03D8134BCB21134AEEE7F8
:1049B000E28E40F63F10531C9BB2092B194688BF6C
:1049C000A3F10A0104EB4101498C814209D10A2B70
:1049D00004EB420228BF0023508C04EB43035884AD
:1049E00051842046BDE810401FF0BABC749B0308F8
:1049F0007D9B0308289C0308729C0308809C030885
:104A00001FF077BC10B586B002AC84E806001A46E9
:104A10000AAB214605930193099B0093089B1CF068
:104A2000E9FA06B010BD000038B518BB124B1348A8
:104A30001C681349B4B122682244026062682244AF
:104A40000A60A26814440F4B00221A8000F038F864
:104A5000054600F033F80C4B1C600C4B1D600C4BF2
:104A6000188007E00B4B03600B4B0B600B4B1C6873
:104A7000002CE8D138BD00BF3828002030280020A5
:104A80002C280020342800207C5D0120845D01203A
:104A9000805D0120C0460A90A8460A9004470A900B
:104AA000044B1B6853F82100034B1B6803EB4000C9
:104AB000704700BF2C2800203028002006207047B7
:104AC000004870473C28002010B5074CFFF782FED5
:104AD0002060FFF7BBFE6060FFF740FEA060FFF7BD
:104AE000F1FEE06010BD00BF3C28002010B500249E
:104AF00004600C6014601C6010BD704710B5044663
:104B00004FF4AE712FF0C5FB204610BD10B5044622
:104B1000D0F8580100F01BF92046BDE810401CF009
:104B200067BF000010B50446FFF792FA014B20461C
:104B3000236010BD50B803087047043870477047B1
:104B400010B5044610212FF0A4FB204610BDA0F1A3
:104B50000400F5E70121806800F01AB9C06800F090
:104B600043B8A0F10400FFF7F9BFC06800F0CEB869
:104B7000A0F10400FFF7F9BF0022C1608260024A81
:104B80000260203242607047A4B8030870470000FA
:104B9000034B10B504460360FFF744FB204610BDED
:104BA000DCB8030810B50446FFF7F2FF40F2844179
:104BB00020462FF06EFB204610BD000010B50446C5
:104BC000FFF7F2FB054B00222046236004F27443FA
:104BD0001A600023C4F8803410BD00BFDCB803089D
:104BE000FFF721BB00000000F8B504462DED028B55
:104BF000B0EE408A04F0CEF8D4F88034C51A04F040
:104C0000C9F8DFED3B7AC4F8800488EE277A07EE16
:104C1000905A04F58F65F8EE677A67EE277A9FED74
:104C2000357AC7EE877A17EE900AFBF7ADFC2EA314
:104C3000D3E90023FBF700FD06460F462868FBF783
:104C4000A3FC02460B4630463946FBF73FFBFBF719
:104C5000CBFF2860FBF798FC02460B46264831F054
:104C60006FF8D5ED007A9FED257AF4EEC77AF1EE74
:104C700010FA26DD85ED007A0120FCF7A3FBD5EDC7
:104C8000007A04F54076FDEEE77A304617EE901A8A
:104C900016F0D8FA30461DF0D2FED5ED007A04F5B4
:104CA0008C60174AFDEEE77A0A2117EE903A20F061
:104CB000FDF904F52D70BDEC028BBDE8F8401DF048
:104CC000BEBE9FED107AF4EEC77AF1EE10FA03D56E
:104CD00085ED007A0020D0E79FED0B7AF4EEC77ADD
:104CE000F1EE10FAF6DBC7E7CDCCCCCCCCCC0C4047
:104CF0000000C84200007A44529D03080000964319
:104D00001FAA0308000096C30000A04238B504465D
:104D1000C0F87C140A4831F013F8D4F87C341D2B09
:104D200002D90120FCF74EFB04F5B875D4F87C14C9
:104D3000284616F087FA2846BDE838401DF07FBEA9
:104D40005F9D03080022C0E900220281704743688A
:104D50001422013393FBF2F170B54360044602FB69
:104D60001133A3B9037A93B1056885B12B689E68A6
:104D7000FCF7E4FA2846B04724682368DD68FCF7AE
:104D800029FB014620462B46BDE87040184770BD00
:104D9000017270474FF0011300200B60034B087144
:104DA0008B60CB6000230B614B6170470000484172
:104DB00010B590F831300446012B05D090F8323010
:104DC00023B1012384F83130002010BD01212030AF
:104DD00000F036FA0028F4D04FF0FF30F5E710B5B8
:104DE00090F8313004462BB190F8321021B10023F5
:104DF00084F83130002010BD203000F021FA002866
:104E0000F5D04FF0FF30F6E710B590F83230044699
:104E1000012B05D090F8313023B1012384F83230D2
:104E2000002010BD0121203000F00AFA0028F4D043
:104E30004FF0FF30F5E710B590F8323004462BB153
:104E400090F8311021B1002384F83230002010BDD9
:104E5000203000F0F5F90028F5D04FF0FF30F6E7EC
:104E600010B590F830300446012B03D0002084F8B0
:104E7000300010BDFFF7B3FF10B14FF0FF30F8E77F
:104E80002046FFF7D8FF0028F0D0F6E7F7EE007ACB
:104E900008B5B4EEE70AF1EE10FA10D9F1EE0C7A8B
:104EA000B4EEE70AF1EE10FA94BF0221032120309C
:104EB00000F054F9003818BF0120404208BD01211C
:104EC000F5E738B590F83010044621B101230020F1
:104ED00084F8303038BD00F12005284600F0B0F9E4
:104EE00010B14FF0FF30F5E70121284600F06AF9D4
:104EF0000028F6D1B7EE000A2046FFF7C7FF0028CA
:104F0000E4D0EEE7FFF7C2BF08B5203000F091F91A
:104F1000003818BF0120404208BD000013B50C4600
:104F200020300DF1070100F030F990B99DF80730FD
:104F3000032B0ED8DFE803F00206090B00232360E1
:104F400002B010BD4FF07E53F9E7034BF7E7034B78
:104F5000F5E74FF0FF30F3E70000E0400000484184
:104F6000FFF7DCBF30B500F1200487B00D462046C6
:104F700002A900F0E0F918B14FF0FF3007B030BDE2
:104F800003A9204600F073F90028F5D104A92046B2
:104F900000F0E7F90028EFD105A9204600F079F9E3
:104FA0000028E9D1ADF8040001A9204600F021F95C
:104FB0000028E1D1DDED057ADDED035A9DED026AB1
:104FC00037EEE55A9DED047A66EE677ABDF9043056
:104FD00006EE903AE5EE877AF8EEE66AE6EE857A36
:104FE00077EE466A87EEA67AB5EEC07AF1EE10FA51
:104FF00009D4DFED087AB4EEE77AF1EE10FA05DCB9
:1050000085ED007ABAE79FED047AF9E7C5ED007AFD
:10501000B4E700BF0000C8420000000030B40446FE
:105020004569007BA46824B941F08001AC4630BCDE
:10503000604741F04001F9E730B404460569007B60
:10504000A46824B941F08001AC4630BC604741F00F
:105050004001F9E7FFF71ABFFFF760BF30B500F175
:10506000200487B00D46204602A900F090F918B13F
:105070004FF0FF3007B030BD03A9204600F01BF908
:105080000028F5D104A9204600F097F90028EFD1B7
:1050900005A9204600F02FF90028E9D1ADF8040059
:1050A00001A9204600F0B5F80028E1D1DDED057A30
:1050B000DDED035A9DED026A37EEE55A9DED047A67
:1050C00066EE677ABDF9043006EE903AE5EE877A2F
:1050D000F8EEE66A37EE467AE6EE857AC7EE876A3C
:1050E000C5ED006AC6E70000B0B14A680B684260CF
:1050F0008A68036082600A7B02730A6902614A69F6
:1051000042618A698261064A4262064A0262CA694B
:10511000C0E90A2003B118474FF0FF30704700BFC5
:105120001D5000083950000810B428B14468C06808
:10513000A4465DF8044B60474FF0FF305DF8044B28
:10514000704710B428B10468C068A4465DF8044BE9
:1051500060474FF0FF305DF8044B704737B50123CF
:105160000D4601AA20210446FFF7DEFF58B99DF83D
:10517000043001AA2021204665F301038DF8043094
:105180000123FFF7DEFF03B030BD13B501230C464A
:1051900001AA2021FFF7C8FF9DF8043003F00303A4
:1051A000032B0BD8DFE803F00C0206080123237061
:1051B00002B010BD0223FAE70323F8E70423F6E761
:1051C0000023F4E737B501230D4601AA2021044648
:1051D000FFF7AAFF58B99DF8043001AA2021204604
:1051E00065F382038DF804300123FFF7AAFF03B0B3
:1051F00030BD13B502230C4601AA2821FFF794FF06
:105200009DF805209DF8043003EB0223238002B0B3
:1052100010BD13B502230C4601AA2A21FFF784FF13
:105220009DF805209DF8043003EB0223238002B093
:1052300010BD0A460F2108B50123FFF775FF08BD11
:1052400037B501230D4601AA20210446FFF76CFF64
:1052500058B99DF8043001AA2021204665F3C713F0
:105260008DF804300123FFF76CFF03B030BD13B598
:1052700001230C460DF107023021FFF755FF9DF881
:10528000073007EE903AFAEEEF7AC4ED007A02B0FA
:1052900010BD13B501230C460DF107023121FFF7B4
:1052A00043FF9DF8073007EE903AFAEEEF7AC4ED2F
:1052B000007A02B010BD37B501230C460DF107028C
:1052C00032210546FFF730FF98B9012301AA3521A5
:1052D0002846FFF729FF9DF804209DF8073002F0CB
:1052E000030203EB022307EE903AFAEEEE7AC4EDE6
:1052F000007A03B030BD37B501230C460DF107022B
:1053000033210546FFF710FF98B9012301AA352183
:105310002846FFF709FF9DF804209DF80730C2F3E7
:10532000810203EB022307EE903AFAEEEE7AC4ED27
:10533000007A03B030BD13B502230C4601AA362112
:10534000FFF7F2FE9DF805209DF8043003EB0223E1
:105350001BB207EE903AF8EEE77AC4ED007A02B09D
:1053600010BD13B502230C4601AA3A21FFF7DCFE5B
:105370009DF805209DF8043003EB02231BB207EED5
:10538000903AF8EEE77AC4ED007A02B010BD13B59A
:1053900002230C4601AA3C21FFF7C6FE9DF805201A
:1053A0009DF8043003EB02231BB207EE903AF8EEAF
:1053B000E77AC4ED007A02B010BD13B502230C46A3
:1053C00001AA3E21FFF7B0FE9DF805209DF80430AC
:1053D00003EB02231BB207EE903AF8EEE77AC4ED36
:1053E000007A02B010BD000000200123054AC1E987
:1053F000003010234A61C1E9023000230B618B6148
:10540000704700BF0000C84410B44469007BA44644
:105410005DF8044B604710B40469007BA4465DF856
:10542000044B60474B1E2DE9F04106460F461446DB
:105430002DED028BB0EE408A032B03D8DFE803F09A
:105440004C60656AF2EE097A012C0CBF1425042524
:10545000B4EEE70AF1EE10FA61D4F2EE097AB4EE96
:10546000E78AF1EE10FA5CD9F3EE097AB4EEE78A36
:10547000F1EE10FA57D9DFED387AB4EEE78AF1EEA3
:1054800010FA52D9DFED357AB4EEE78AF1EE10FA70
:105490004DD9DFED337AB4EEE78AF1EE10FA59D93F
:1054A000DFED307AB4EEE78AF1EE10FA41D9DFEDA4
:1054B0002E7AB4EEE78AF1EE10FA94BF08210921A2
:1054C00006F12008404600F0A2FBA0B34FF0FF30E9
:1054D000BDEC028BBDE8F081012C0CBF1325032528
:1054E000DFED1F7AB4EEE78AF1EE10FA30DCDFED83
:1054F0001F7AB4EEE78AF1EE10FAAED80121DFE7A9
:10550000012C14BF0D461225EAE7012C0CBF112512
:105510000125E5E7631E5D425D412D01E0E7B0EE48
:10552000678A0221CCE70321CAE70421C8E70521E5
:10553000C6E70721C4E72946404600F0E5FA0028FF
:10554000C4D186ED0D8A86F8387086F83940BFE7F9
:105550009FED038A0621B3E7000048420000C842DD
:10556000000048430000C84300004844CDCCCC3F75
:1055700010B590F831300446012B0BD090F839204B
:1055800090F8381090ED0D0AFFF74CFF20B9012379
:1055900084F83130002010BD4FF0FF30FBE710B52C
:1055A00090F83130044633B10021203000F02FFB59
:1055B00018B984F83100002010BD4FF0FF30FBE730
:1055C00010B50446FFF7EBFF28B90023208784F8C5
:1055D0003000636310BD4FF0FF30FBE738B500F1DA
:1055E000200504460121284600F0E7FB10B14FF0EA
:1055F000FF3038BD0121284600F077FB0146002826
:10560000F5D1284600F0F0FB0028F0D1042128460F
:1056100000F07AFA01460028E9D1094B2087284694
:10562000636300F0F4FA01460028E0D1284600F058
:1056300073FB0028DBD1012384F83030D9E700BFA9
:105640000000C842022908B50DDD04290DDD082936
:10565000CCBF03210221203000F05EFB003818BFD0
:105660000120404208BD0021F5E70121F3E708B51C
:10567000203000F09BFB003818BF0120404208BDDD
:1056800013B50C4620300DF1070100F05CFBA0B90A
:105690009DF80730032B0DD8DFE803F00206080A57
:1056A0000223236002B010BD0423FAE70823F8E7C1
:1056B0001023F6E74FF0FF3323604FF0FF30F1E7A0
:1056C00037B500F120050C460DF10601284600F023
:1056D0003AFB38BB0DF10701284600F044FA08BB3D
:1056E0009DF807201B2A1BD80123934003F01E328C
:1056F00022F01022CAB913F0013F11D09DF80630F4
:10570000032B0DD8DFE803F00206080A104B2360D4
:1057100003B030BD0F4BFAE70F4BF8E70F4BF6E73E
:105720000F4B23604FF0FF30F2E79DF80630032B5C
:10573000F6D801A252F823F0495700084D57000847
:105740000D57000815570008064BE0E7064BDEE74B
:1057500023DB793F23DBF93F23DB794023DBF9406F
:10576000000080BF23DB793E23DBF93E37B500F133
:1057700020050C460DF10601284600F074FA78BBAE
:105780000DF10701284600F0EEF948BB9DF8063000
:10579000122B0DD8122B21D8DFE803F00C101C259A
:1057A00027292B2D3B4920202020202020200C00C1
:1057B000322B13D10023236003B030BD9DF80720A6
:1057C0001B2A0BD80123934013F00F3F04D113F091
:1057D000101F03D01D4BEEE71D4BECE71D4B236064
:1057E0004FF0FF30E8E71C4BE5E71C4BE3E71C4BB1
:1057F000E1E71C4BDFE79DF807201B2AEED80123C9
:10580000934013F00F3FF4D113F0101FE6D0164B66
:10581000D1E79DF807201B2AE0D80123934013F01D
:105820000F3FE6D113F0101FD8D0104BC3E79DF8FF
:1058300007201B2AD2D80123934013F00F3FD8D161
:1058400013F0101FCAD00A4BB5E700BF0000484153
:10585000CDCCCC3F000080BF0000C84100004842D2
:105860000000C842000048430000C843000048440C
:105870000000C84430B500F1200585B00C4628462C
:105880000DF1070100F06FF900283FD102A9284669
:1058900000F06EFA002839D19DF807201B2A35D870
:1058A0000123934003F01E3222F01022CAB913F0F4
:1058B000013F2BD0BDF90830002BB8BF0F331B11AF
:1058C0002380BDF90A30002BB8BF0F331B11638052
:1058D000BDF90C30002BB8BF0F331B11A38005B0EE
:1058E00030BDBDF90830002BB8BF03339B102380B7
:1058F000BDF90A30002BB8BF03339B106380BDF99C
:105900000C30002BB8BF03339B10E7E74FF0FF309C
:10591000E5E730B585B000230C46054602A90193A2
:10592000FFF7A8FF18B14FF0FF3005B030BD01A957
:105930002846FFF7C5FE0028F5D1BDF908309DEDDA
:10594000017A07EE903ABDF90A30F8EEE77A67EE91
:10595000877AFDEEE77AC4ED007A07EE903ABDF95A
:105960000C30F8EEE77A67EE877AFDEEE77AC4ED61
:10597000017A07EE903AF8EEE77A67EE877AFDEE65
:10598000E77AC4ED027AD0E770B490F8316003464C
:10599000012E02D170BCFFF745BDDFED227A80F801
:1059A0003810B4EEE70A80F83920F1EE10FA34D955
:1059B000F2EE097AB4EEE70AF1EE10FA2DD9F3EE21
:1059C000097AB4EEE70AF1EE10FA26D9DFED167A7D
:1059D000B4EEE70AF1EE10FA1FD9DFED147AB4EE57
:1059E000E70AF1EE10FA18D9DFED117AB4EEE70A02
:1059F000F1EE10FA11D9DFED0F7AB4EEE70AF1EE0D
:105A000010FA0AD9DFED0C7A9FED0C7AB4EEE70AB2
:105A1000F1EE10FA88BFF0EE477A0020C3ED0D7A60
:105A200070BC7047CDCCCC3F000048420000C8425B
:105A3000000048430000C843000048440000C84438
:105A400000221146FFF7A0BF07B501238DF80720FC
:105A500020300DF1070200F04AF8003818BF01208D
:105A6000404203B05DF804FB10B5044610B94FF096
:105A7000FF3010BD4A680B6842608A68036082602C
:105A80000A7B02730A6902614A6942618A6982611A
:105A90000E4A42620E4A0262CA69C0E90A20002B1D
:105AA000E5D098470028E2D1A368022BE1D194F811
:105AB0003030002BDDD1052221212046FFF7C4FF25
:105AC000003818BF01204042D3E700BF0954000846
:105AD0001754000810B428B14468C068A4465DF8A3
